:1000000075A800758170753301E53312008775316D
:1000100001900095120066A3F0E582B4FEF6B2B13D
:10002000E53323F533120087E583B4FFE77532002B
:1000300075310190009512006685E0F0A3E0C3954C
:10004000F06003753201E582B4FEEBB2B1E583B432
:10005000FFE4E5326007746D12008780FE7477124A
:100060000087B2B180FCC200E531135002B2001328
:10007000135002B200135002B200135002B200E556
:1000800031A20013F53122C083C08290FFFFF0D06F
:0600900082D08322000073
:00000001FF
